:030000000208AE45
:0C08AE00787FE4F6D8FD75810702080091
:10089000D3EF9400EE940040147D6E7C00ED1D704B
:0D08A000011CED4C70F7EF1F70E61E80E3A9
:0108AD002228
:10080000EB4A700A75A0FE0BBB00010A8078EB640E
:10081000014A700A75A0FC0BBB00010A8068EB64FA
:10082000024A700A75A0F80BBB00010A8058EB64FD
:10083000034A700A75A0F00BBB00010A8048EB6404
:10084000044A700A75A0E00BBB00010A8038EB6413
:10085000054A700A75A0C00BBB00010A8028EB6432
:10086000064A700A75A0800BBB00010A8018EB6471
:10087000074A7007F5A0FA7B0A800BEB640A4A70FE
:100880000563A0FFFAFB7F647E0012089002080057
:00000001FF
